S018000070656E64756C756D5F70726F6A6563742E737265634C
S113000008C100002BC1000029C1000027C1000065
S113001025C1000023C1000021C100001FC1000050
S11300201DC100001BC1000019C1000017C1000060
S113003015C1000013C1000011C100000FC1000070
S11300400DC100000BC1000009C1000007C1000080
S113005005C1000003C1000001C10000FFC0000091
S1130060FDC000008FC10000C2C10000F7C0000045
S1130070F5C00000F3C00000F1C00000EFC00000B4
S1130080EDC00000EBC00000E9C00000E7C00000C4
S1130090E5C00000E3C00000E1C00000DFC00000D4
S11300A0DDC00000DBC00000D9C00000D7C00000E4
S11300B0D5C00000D3C00000D1C00000CFC00000F4
S11300C0CDC00000CBC00000C9C00000C7C0000004
S11300D0C5C0000007C20000C1C00000BFC00000CE
S11300E0BDC00000BBC00000B9C00000B7C0000024
S11300F0B5C00000B3C00000B1C00000AFC0000034
S1130100ADC00000ABC00000A9C00000A7C0000043
S1130110A5C00000A3C00000A1C000009FC0000053
S11301209DC000009BC0000099C0000097C0000063
S113013095C0000093C0000091C000008FC0000073
S11301408DC000008BC0000089C0000087C0000083
S113015085C0000083C0000081C000007FC0000093
S11301607DC000007BC0000079C0000077C00000A3
S113017075C0000073C0000071C000006FC00000B3
S11301806DC000006BC0000069C0000067C00000C3
S113019065C0000063C0000061C000005FC00000D3
S11301A05DC000005BC0000059C0000057C00000E3
S11301B065C1000053C0000051C000004FC00000E2
S11301C04DC000004BC0000049C0000047C0000003
S11301D045C0000043C0000041C000003FC0000013
S11301E03DC000003BC0000039C0000037C0000023
S11301F035C00000AB1AAD1AAD1AB21AB21AB21A4F
S1130200B21AB21AB71AB91AB91AB91AB91ADE1A3D
S1130210E21A11241FBECFEFCDBFDFE3DEBF00E043
S11302200CBF18BE19BE1ABE1BBE13E2A0E0B0E29A
S1130230ECE1F3E400E00BBF02C007900D92A83E8E
S1130240B107D9F71BBE2BE2A8EEB3E201C01D92A1
S1130250AE36B207E1F77CD60C948C21D1CECF9385
S1130260DF93F89482E080935000E0E5F0E0818130
S113027081FFFDCF88ED84BFC1E0C0934000E0E87A
S1130280F6E08081816080838481816084838081C1
S113029082608083848182608483E0E6F6E08081EA
S11302A081608083848181608483E0E0FBE010A22C
S11302B011A287E08083118280E290E086A397A355
S11302C0D2E0D683E0EAF0E0828184608283828196
S11302D0826082838281816082838281806882835A
S11302E0E0E4F6E080818870808380818B6F808376
S11302F041E060EA78E08AEE96E20E945F1EE091B7
S1130300EA26F091EB2683E0858383818F7C8061EC
S11303108383A0EAB8E085EE16968C9316978CEB4F
S113032017968C938481806184838481886084831C
S1130330D093900BE0E4FBE080E293E086A397A3E4
S113034085E38183C08380E3E0EAF6E08183E0EE25
S1130350F6E08FEF8183868386E685838FE290E0E3
S1130360E0E4FAE086A397A362E080E49AE00E94C6
S1130370591E66E080E49AE00E94531E7894DF914F
S1130380CF9108951F920F920FB60F92112408B6C1
S11303900F9218BE09B60F9219BE0BB60F921BBE70
S11303A02F933F934F935F936F937F938F939F9379
S11303B0AF93BF93EF93FF938AEE96E20E94961E4B
S11303C0FF91EF91BF91AF919F918F917F916F9129
S11303D05F914F913F912F910F900BBE0F9009BEEB
S11303E00F9008BE0F900FBE0F901F9018951F928C
S11303F00F920FB60F92112408B60F9218BE09B6C9
S11304000F9219BE0BB60F921BBE2F933F934F93BF
S11304105F936F937F938F939F93AF93BF93EF9368
S1130420FF938AEE96E20E94B11EFF91EF91BF9175
S1130430AF919F918F917F916F915F914F913F9178
S11304402F910F900BBE0F9009BE0F9008BE0F9016
S11304500FBE0F901F901895CF93DF93FC0160811E
S1130460662349F0EC0121968AEE96E20E946D1E05
S113047069916111F9CFDF91CF9108951F920F9285
S11304800FB60F92112408B60F9218BE0BB60F9236
S11304901BBE8F939F93EF93FF938091E8239091DA
S11304A0E92301978093E8239093E923181619060A
S11304B064F0E0E6F6E0948181E08927848388ECA7
S11304C090E08093E8239093E923FF91EF919F912B
S11304D08F910F900BBE0F9008BE0F900FBE0F9020
S11304E01F9018951F920F920FB60F92112408B601
S11304F00F9218BE09B60F9219BE0BB60F921BBE0F
S11305002F933F938F939F93AF93BF93EF93FF9357
S11305108091CD2A9091CE2AA091CF2AB091D02A51
S11305200196A11DB11D8093CD2A9093CE2AA0934C
S1130530CF2AB093D02A8091CD2A9091CE2AA0912F
S1130540CF2AB091D02A4B97A105B10508F4D2C0A7
S11305501092CD2A1092CE2A1092CF2A1092D02A2D
S11305608091C72A9091C82AA091C92AB091CA2A19
S11305700196A11DB11D8093C72A9093C82AA09308
S1130580C92AB093CA2A8091C32A9091C42AA091FF
S1130590C52AB091C62A0196A11DB11D8093C32A14
S11305A09093C42AA093C52AB093C62A8091972A0F
S11305B09091982AA091992AB0919A2A0196A11D06
S11305C0B11D8093972A9093982AA093992AB09367
S11305D09A2A20918E2A30918F2A8091B92990915C
S11305E0BA292817390754F480918E2A90918F2ABA
S11305F0039680938E2A90938F2A14C020918E2A7A
S113060030918F2A8091B9299091BA298217930742
S11306104CF480918E2A90918F2A039780938E2A8E
S113062090938F2A20919B2A30919C2A8091BF29F4
S11306309091C0292817390754F480919B2A9091EE
S11306409C2A039680939B2A90939C2A14C0209101
S11306509B2A30919C2A8091BF299091C0298217AE
S113066093074CF480919B2A90919C2A0397809342
S11306709B2A90939C2A8091C72A9091C82AA09182
S1130680C92AB091CA2A84369105A105B10590F111
S11306908091A02A9091A12AA091A22AB091A32A84
S11306A00196A11DB11D8093A02A9093A12AA09325
S11306B0A22AB093A32A8091AA2A9091AB2AA0914E
S11306C0AC2AB091AD2A0196A11DB11D8093AA2A2E
S11306D09093AB2AA093AC2AB093AD2A1092C72A68
S11306E01092C82A1092C92A1092CA2A80E8E0E41B
S11306F0F6E08783FF91EF91BF91AF919F918F9126
S11307003F912F910F900BBE0F9009BE0F9008BE22
S11307100F900FBE0F901F9018958FEFE0E4F6E056
S113072087832FEF88E09DE3215080409040E1F7DC
S113073000C0000088ED84BF81E0E8E7F0E0818339
S113074008950F931F930091A42A1091A52A409114
S1130750C32A5091C42A6091C52A7091C62A2227BF
S113076017FD2095322F401751076207730748F190
S11307701092C32A1092C42A1092C52A1092C62A33
S11307801092B82A91E09093BA2A882309F4A7C05A
S11307902091CB2A3091CC2A2F5F3F4F2093CB2A34
S11307A03093CC2A2091CB2A3091CC2A90E0281780
S11307B039073CF01092CB2A1092CC2A81E0809326
S11307C0B82A8091B82A813009F089C08091BA2A68
S11307D0823069F118F4813041F081C0833009F42A
S11307E04DC0843009F477C07AC080919E2A9091DC
S11307F09F2A8093BF299093C0294091C329509187
S1130800C4298091C32A9091C42AA091C52AB09189
S1130810C62A662757FD6095762F84179507A60785
S1130820B70708F45CC082E08093BA2A58C080916C
S1130830BD2A9091BE2A8093BF299093C0294091EC
S1130840C3295091C4292091C1293091C229809192
S1130850C32A9091C42AA091C52AB091C62A420FF6
S1130860531F662757FD6095762F84179507A607B3
S1130870B707A8F183E08093BA2A31C08091932A04
S11308809091942A8093BF299093C0296091C329A1
S11308907091C4294091C1295091C2292091A62A5E
S11308A03091A72A8091C32A9091C42AA091C52A85
S11308B0B091C62A460F571F420F531F662757FD94
S11308C06095762F84179507A607B70740F084E054
S11308D08093BA2A04C01092BF291092C0291F9194
S11308E00F9108950F931F930091952A1091962AC2
S11308F04091972A5091982A6091992A70919A2A46
S1130900222717FD2095322F4017510762077307DE
S113091048F11092972A1092982A1092992A1092CC
S11309209A2A10928D2A91E09093B92A882309F487
S1130930A7C02091AE2A3091AF2A2F5F3F4F20935A
S1130940AE2A3093AF2A2091AE2A3091AF2A90E09C
S1130950281739073CF01092AE2A1092AF2A81E092
S113096080938D2A80918D2A813009F089C08091ED
S1130970B92A823069F118F4813041F081C08330A2
S113098009F44DC0843009F477C07AC08091C12A3B
S11309909091C22A8093B9299093BA294091B02AA0
S11309A05091B12A8091972A9091982AA091992ADE
S11309B0B0919A2A662757FD6095762F841795077C
S11309C0A607B70708F45CC082E08093B92A58C030
S11309D08091B22A9091B32A8093B9299093BA292D
S11309E04091B02A5091B12A2091A82A3091A92A85
S11309F08091972A9091982AA091992AB0919A2A45
S1130A00420F531F662757FD6095762F841795076D
S1130A10A607B707A8F183E08093B92A31C0809173
S1130A20BB2A9091BC2A8093B9299093BA296091EA
S1130A30B02A7091B12A4091A82A5091A92A2091F4
S1130A40912A3091922A8091972A9091982AA09184
S1130A50992AB0919A2A460F571F420F531F6627AF
S1130A6057FD6095762F84179507A607B70740F0C2
S1130A7084E08093B92A04C01092B9291092BA294B
S1130A801F910F91089580919B2A90919C2A0B9716
S1130A907CF0E0EEF6E081E0868388E08583809157
S1130AA09B2A90919C2AE0E4FBE080AF91AF1DC0AB
S1130AB080919B2A90919C2A863F9F4F94F4E0EE6C
S1130AC0F6E088E0868381E0858380919B2A90917B
S1130AD09C2A919581959109E0E4FBE080AF91AF68
S1130AE004C089E0E0EEF6E0868380918E2A90913E
S1130AF08F2A0B977CF0E0EEF6E080E1868380E8B5
S1130B00858380918E2A90918F2AE0E4FBE082AF66
S1130B1093AF089580918E2A90918F2A863F9F4F9C
S1130B2094F4E0EEF6E080E8868380E185838091AA
S1130B308E2A90918F2A919581959109E0E4FBE0AA
S1130B4082AF93AF089580E9E0EEF6E086830895DE
S1130B507F928F929F92AF92BF92CF92DF92EF9249
S1130B60FF920F931F93CF93DF93CDB7DEB7CF5F81
S1130B70D109CDBFDEBF4B010E94FD1DFE013196A0
S1130B808FEFDF011D928A95E9F70E94B91B8F3F11
S1130B90BFEF9B0709F467C0C12CD12C00E010E023
S1130BA0A12CB12CFE0131967F0177247A94A7E819
S1130BB0B3E11197F1F700C000009C012053310903
S1130BC02A30310530F08D32910551F401151105AB
S1130BD041F5F701E00FF11F80830F5F1F4F28C01D
S1130BE08D30910511F00A9701F5CD2881F4012B80
S1130BF071F085010F5F1F4FAA0CBB1CA80CB91C18
S1130C00C7010E943C21F501808391835801D701DB
S1130C10E72D1D92EA95E9F7C12CD12C00E010E0F4
S1130C2007C0CC24C394D12C03C0CC24C394D12CAE
S1130C300E94B91B8F3FFFEF9F0709F0B8CFC50192
S1130C40CD2899F4012B89F02FEFA21AB20A880F4C
S1130C50991F880E991ECE0101960E943C21D40151
S1130C608D939C9302C0A12CB12C0E943F1EC50100
S1130C70C150DF4FCDBFDEBFDF91CF911F910F91E8
S1130C80FF90EF90DF90CF90BF90AF909F908F90A8
S1130C907F900895EF92FF920F931F93CF93DF936A
S1130CA0CDB7DEB7CE5FD140CDBFDEBF0E94611DA0
S1130CB02FE78AE196E0215080409040E1F700C0A0
S1130CC00000BE016F5F7F4F8DE090E241DF7C0149
S1130CD081E290E2C1DBB7018AEE96E20E94781FBE
S1130CE08EE290E2B9DB1E141F04ACF48E010F5F98
S1130CF01F4FEE0CFF1CE00EF11EF8016191719183
S1130D008F018AEE96E20E94781F89EB91E2A4DBC0
S1130D100E151F0591F78BE590E29EDB89819A8180
S1130D208093A42A9093A52A8B819C818093C329C4
S1130D309093C4298D819E8180939E2A90939F2AAB
S1130D408F8198858093C1299093C22989859A853A
S1130D508093BD2A9093BE2A8B859C858093A62A76
S1130D609093A72A8D859E858093932A9093942AA5
S1130D70FFE72AE186E0F15020408040E1F700C01F
S1130D800000BE016F5F7F4F82E890E2E1DE7C01EC
S1130D9081E290E261DBB7018AEE96E20E94781F5D
S1130DA086E990E259DB1E141F04ACF48E010F5F38
S1130DB01F4FEE0CFF1CE00EF11EF80161917191C2
S1130DC08F018AEE96E20E94781F89EB91E244DB60
S1130DD00E151F0591F783EC90E23EDB89819A8121
S1130DE08093952A9093962A8B819C818093B02A34
S1130DF09093B12A8D819E818093C12A9093C22AB7
S1130E008F8198858093A82A9093A92A89859A85A9
S1130E108093B22A9093B32A8B859C858093912AE0
S1130E209093922A8D859E858093BB2A9093BC2AA9
S1130E30FFE72AE186E0F15020408040E1F700C05E
S1130E400000BE016F5F7F4F8BEE90E281DE8093E6
S1130E509D2A81E290E200DB60919D2A70E08AEE97
S1130E6096E20E94781F87E091E2F6DA80919D2A4B
S1130E70882309F1FE0131967F0100E010E0F701BB
S1130E80819191917F01F801EE0FFF1FEF50F74D13
S1130E9080839183608171818AEE96E20E94781F3B
S1130EA089EB91E2D9DA0F5F1F4F80919D2A90E080
S1130EB00817190724F38BE590E2CEDABE016F5FC1
S1130EC07F4F8CE391E244DE8093902A81E290E2AA
S1130ED0C3DA6091902A70E08AEE96E20E94781F4D
S1130EE088E591E2B9DA8091902A882309F1CE014C
S1130EF001967C0100E010E0F701819191917F015E
S1130F00F801EE0FFF1FEB53F64D80839183608150
S1130F1071818AEE96E20E94781F89EB91E29CDA55
S1130F200F5F1F4F8091902A90E00817190724F350
S1130F308BE590E291DA0E94D51DC250DE4FCDBF01
S1130F40DEBFDF91CF911F910F91FF90EF90089535
S1130F5086D98DE891E280DA9DDE95DDE091D22A92
S1130F60F0E0EE0FFF1FED50F74D80819181E9DB3A
S1130F70E091D22AF0E0EE0FFF1FEF50F74D4081D1
S1130F8051810091BB291091BC292091BD29309138
S1130F90BE298091A02A9091A12AA091A22AB09161
S1130FA0A32A662757FD6095762F400F511F621FB5
S1130FB0731F481759076A077B0708F049C0E09177
S1130FC0D22AF0E0EE0FFF1FEF50F74D80819181A0
S1130FD04091BB295091BC296091BD297091BE29D3
S1130FE0AA2797FDA095BA2F840F951FA61FB71F98
S1130FF08093BB299093BC29A093BD29B093BE29AB
S11310002091D22A80919D2A30E02F5F3F4F90E0BB
S113101001972817390799F41092D22A1092BB2904
S11310201092BC291092BD291092BE291092A02AB8
S11310301092A12A1092A22A1092A32A09C0809188
S1131040D22A8E5F8093D22A1092CB2A1092CC2A75
S1131050E091D12AF0E0EE0FFF1FE953F64D8081B5
S1131060918140DCE091D12AF0E0EE0FFF1FEB53B9
S1131070F64D408151810091B42A1091B52A2091F6
S1131080B62A3091B72A8091AA2A9091AB2AA091CE
S1131090AC2AB091AD2A662757FD6095762F400F94
S11310A0511F621F731F481759076A077B0708F00F
S11310B054CFE091D12AF0E0EE0FFF1FEB53F64D31
S11310C0808191814091B42A5091B52A6091B62AC9
S11310D07091B72AAA2797FDA095BA2F840F951F60
S11310E0A61FB71F8093B42A9093B52AA093B62A5B
S11310F0B093B72A2091D12A8091902A30E02F5FB3
S11311003F4F90E001972817390709F03CC010922F
S1131110D12A1092B42A1092B52A1092B62A1092AB
S1131120B72A1092AA2A1092AB2A1092AC2A1092D3
S1131130AD2A8FE991E290D98BEB91E28DD9E091C0
S1131140D12AF0E0EE0FFF1FEB53F64D6081718161
S11311508AEE96E20E94781F89EB91E27DD981EDB7
S113116091E27AD9E091D12AF0E0EE0FFF1FE95322
S1131170F64D608171818AEE96E20E94781F88EBB9
S113118091E26AD9EACE8091D12A8E5F8093D12AE6
S11311901092AE2A1092AF2A80EE91E25DD9E091CE
S11311A0D12AF0E0EE0FFF1FEB53F64D6081718101
S11311B08AEE96E20E94781F89EB91E24DD981ED87
S11311C091E24AD9E091D12AF0E0EE0FFF1FE953F2
S11311D0F64D608171818AEE96E20E94781F88EB59
S11311E091E23AD9BACEFC01818190E0982F882708
S11311F02081822B0895FC0123816281862F90E057
S1131200A0E0B0E0DC0199278827B22B2081822B53
S11312102181BC01CD01722B08958F929F92AF92D0
S1131220BF92CF92DF92EF92FF920F931F93CF93CF
S1131230DF9300D01F92CDB7DEB7FC01009709F40D
S113124084C0423051056105710508F483C0A08152
S1131250B18118968C9118978B3009F040C04A01DF
S11312605B01242F392D4A2D5B2D60E070E080E076
S113127090E002E00E94D220A284B384C484D58486
S1131280E684F784008911890E940921ED91FC917B
S11312906894EE24E2F8F12C8E010F5F1F4F19952C
S11312A08823C1F049815A816B817C8141155105A4
S11312B06105710579F0DB01CA01805F9F4FAF4F73
S11312C0BF404097A105B10528F0342F252F862F64
S11312D0972F44C030E020E080E090E03FC04A0116
S11312E05B01242F392D4A2D5B2D60E070E080E0F6
S11312F090E001E00E94D220A284B384C484D58407
S1131300E684F784008911890E940921ED91FC91FA
S11313106894EE24E1F8F12C8E010F5F1F4F1995AC
S1131320882371F089819A81AC0160E070E00197B3
S11313308F3E9F4F28F4342F252F862F972F0EC0D2
S113134030E020E080E090E009C030E020E080E080
S113135090E004C030E020E080E090E0632F722F42
S11313602496CDBFDEBFDF91CF911F910F91FF90E7
S1131370EF90DF90CF90BF90AF909F908F900895A3
S11313802F923F924F925F926F927F928F929F9291
S1131390AF92BF92CF92DF92EF92FF920F931F937F
S11313A0CF93DF93EC01009751F142305105610571
S11313B0710570F142505109610971091A012B013B
S11313C0088D198DA02EB12EC12CD12CE12CF12C1D
S11313D000E010E0222D332D442D552D60E070E007
S11313E080E090E00E948120AA8CBB8CCC8CDD8CA8
S11313F0EE8CFF8C08A119A10E94092111C020E0E4
S113140030E040E050E060E070E080E090E008C050
S113141020E030E040E050E060E070E080E090E008
S1131420DF91CF911F910F91FF90EF90DF90CF90BC
S1131430BF90AF909F908F907F906F905F904F90F0
S11314403F902F900895FC0181919AE080FB87954D
S113145087F92191820F9150C9F70895CF92DF92B5
S1131460EF92FF920F931F93CF93DF936C01F701D9
S11314700481158101151105C1F0C0E0D0E0C60159
S11314808C0F9D1FB0DE892B61F4F701808191815F
S1131490A281B3810196A11DB11D80839183A28392
S11314A0B3832296C017D10750F381E0DF91CF9127
S11314B01F910F91FF90EF90DF90CF9008952F929E
S11314C03F924F925F926F927F928F929F92AF92D0
S11314D0BF92CF92DF92EF92FF920F931F93CF931D
S11314E0DF93CDB7DEB72D97CDBFDEBF6C01422EA3
S11314F0532E642E752E362E272ED701AD90BC9018
S1131500119712968D919C911397809612968D93B4
S11315109C931397F6018081853E11F0811105C0DB
S1131520D70114961C9281E035C14501F6018385EB
S11315308F3009F055C0D70114968C91882319F087
S11315409585891711F181E3F50111928A95E9F7DF
S1131550D6011D968C91F7018483D50199960C933D
S113156099979A961C939A979B964C929B979C96C4
S11315705C929C979D966C929D979E967C929E976A
S11315809F963C929F97D0962C92F60120812F73C0
S113159030E0215031094DE0429FC001439F900D3E
S11315A011242DE0E0E0F0E2DE01119601900D92AD
S11315B02A95E1F78F31910508F4D4C00FC08191C9
S11315C0B601680F711DDB018C91D5018D935D010E
S11315D0E417F50719F0E217F30789F781E0DAC099
S11315E0F5018081882341F0C6012DDFD7011496CF
S11315F09C91981709F485C081E3F50111928A95AD
S1131600E9F7D50199960C9399979A961C939A9712
S11316109B964C929B979C965C929C979D966C9201
S11316209D979E967C929E979F963C929F97D0966C
S11316302C92F6016081603239F13196960181E095
S113164090E0A0E0B0E009C09F016191AC014F5F60
S11316505F4F6032D1F0DC01CA018D01080D191D04
S1131660D8016C93D6011C964C9143FF08C0D90154
S11316702C9121542A3118F4605ED8016C93782F90
S11316808830910509F701C070E0F501808185304B
S113169011F485EE8083D60118968C9118978032C8
S11316A059F121E0270F8EE2F501E70FF11D808348
S11316B0C601089618963C913032F9F0F601399635
S11316C07C5F04C0CF0131913032B9F08401020F44
S11316D0111DD8013C93D6011C964C9144FF08C0BF
S11316E0DC018C9181548A3118F4305ED8013C932A
S11316F02F5F2713E7CF01C0272FF501E20FF11D5C
S11317001082F6018385D50190968C93C6014A9682
S11317106ADD2C01612C712CF50141A252A263A255
S113172074A2C60144965FDDA0E0B0E0DC01992715
S11317308827482A592A6A2A7B2AD50191964D92EC
S11317405D926D927C929497C6014C9654DDF5019E
S113175065A376A387A390A781E0D70115968C9300
S113176080E018C02981F601E20FF11D2081F50106
S1131770E80FF91F2083FE013296DC011196AA0EB0
S1131780BB1E9E01205E3F4F281B390BAE01425FFA
S11317905F4F21CF2D96CDBFDEBFDF91CF911F913B
S11317A00F91FF90EF90DF90CF90BF90AF909F90FC
S11317B08F907F906F905F904F903F902F900895FF
S11317C0CF92DF92EF92FF920F931F93CF93DF9309
S11317D06C01F7010481158101151105D1F0C0E0F8
S11317E0D0E0C6018C0F9D1F06DD672B682B692B8B
S11317F061F4F70180819181A281B3810196A11DD9
S1131800B11D80839183A283B3832496C017D1072B
S113181040F381E0DF91CF911F910F91FF90EF9002
S1131820DF90CF9008952F923F924F925F926F92E4
S11318307F928F929F92AF92BF92CF92DF92EF925C
S1131840FF920F931F93CF93DF93CDB7DEB7C455A9
S1131850D109CDBFDEBF3C01009709F439C2DC01D8
S113186014968D919C911597892B09F434C2169680
S11318708D919C911797892B09F430C280919B24F8
S113188090919C24892B09F42CC280E090E064C2DE
S1131890CE010196A8DC8FAB98AFCE010496A3DCF1
S11318A089AF9AAFBB812296BFAF2297EE81239670
S11318B0EFAF2397CE01079696DC2D968EAF9FAFA0
S11318C02D97CE0109968FDC7C01CE010C968BDC22
S11318D021968EAF9FAF2197CE0146968CDC5B019B
S11318E06C01CE014A9687DC6BAF7CAF8DAF9EAFA7
S11318F0CE01829680DC65966CAF7DAF8EAF9FAFD4
S11319006597A114B104C104D10439F4E114F104BC
S113191009F419C25701C12CD12C2196EEACFFACAD
S11319202197E114F10441F0870120E030E00BAF8E
S11319301CAF2DAF3EAF09C04BAD5CAD6DAD7EAD00
S1131940452B462B472B09F4FEC123965FAD239705
S1131950A52FB0E02BAD3CAD4DAD5EAD0E94772020
S11319608601750129AD3AADE21AF30A010911099C
S1131970E61AF70A080B190B2D968EAD9FAD2D971D
S1131980880F991F82959295907F9827807F98273A
S11319904FA958AD41505109840F951F6FA978ADD7
S11319A00E942C20E61AF70A01091109C801B7019F
S11319B022964FAD2297042F10E020E030E0A901D9
S11319C098010E94402061962CAF3DAF4EAF5FAFAF
S11319D06197DA01C901853F5FE09507A105B1056B
S11319E008F4B1C1853F9F4FA105B10528F486E0F5
S11319F0D30118968C9303C08BE0F30180878CE2AB
S1131A00ADE9B4E21D928A95E9F70FA918AD780102
S1131A1000E010E020E030E0A901EFA6F8AA09AB4D
S1131A201AAB2BAB3CAB4DAB5EABA601950160E0B2
S1131A3070E0CB012496AFAE249725963FAF25974F
S1131A4026964FAF269727965FAF279728966FAFB6
S1131A50289729967FAF29972A968FAF2A972B9696
S1131A609FAF2B97AE2CBF2CC12CD12CE12CF12C89
S1131A7000E010E060E070E080E090E00E948120EF
S1131A80ADE9B4E22C9330939E2440939F24509369
S1131A90A0246093A1247093A2248093A324909300
S1131AA0A424E9ADFAADAF012E2F352F40E050E06C
S1131AB060E070E080E090E00E948120A92CB82CC6
S1131AC0C32CD22CEEA0FEA4042D152D0E940921B6
S1131AD0322E232E4EA759AF462E572E982E892EDE
S1131AE0E5EAF4E22083318342835383648375837C
S1131AF08683978361966CAD7DAD8EAD9FAD619706
S1131B006E5F7F4F8F4F9F4FD30118962C912630D5
S1131B1029F422E030E040E050E004C024E030E06A
S1131B2040E050E00E941D206093AD247093AE24E9
S1131B308093AF249093B024EFA9F8ADE093B1243F
S1131B40F093B2242296AFAC2297AE9EC001AF9E12
S1131B50900D11248093B3249093B424D301189648
S1131B608C91863009F066C02196EEADFFAD2197C9
S1131B708F01AE2EB12EC12CD12CE12CF12C00E022
S1131B8010E02FA538A940E050E060E070E080E06C
S1131B9090E00E9481202396AFAC2397B12C0E9441
S1131BA08120A32CB22CCEA4D9ACE42CF52C092D85
S1131BB0182D0E940921422E532E642E752EB62F05
S1131BC0A72F282E392EEDEBF4E2208331834283B4
S1131BD0538364837583868397832D960EAD1FADDF
S1131BE02D974801202F392D40E050E060E070E04F
S1131BF080E090E005E00E94D220A22EB32EC42EF5
S1131C00D52EE62EF72E082F192F242D352D462DEF
S1131C10572D6B2F7A2F822D932D0E940921E5EBEE
S1131C20F4E2208331834283538364837583868300
S1131C30978390C02396AFAC2397B12CC12CD12CA1
S1131C40E12CF12C00E010E02FA538A940E050E091
S1131C5060E070E080E090E00E948120CBACDCACDE
S1131C60EDACFEAC56016701E12CF12C8701AEA26C
S1131C70BFA2C8A6D9A6EAA6FBA60CA71DA7E12C5D
S1131C80F12C00E010E00E948120A32CB22CCEA401
S1131C90D9ACE42CF52C092D182D0E940921E5EB73
S1131CA0F4E2208331834283538364837583868380
S1131CB097836596ECACFDAC0EAD1FAD6597E092D5
S1131CC0C524F092C6240093C7241093C82442C0AC
S1131CD080E090E041C080E090E03EC080E090E091
S1131CE03BC0EBE9F4E282E3DF011D928A95E9F758
S1131CF060827182F30181849284A384B484282D48
S1131D00392D4A2D5B2D60E070E080E090E009E021
S1131D100E94D220922E832E342E252E6EA37EA7CF
S1131D20482E592EABE00E9412210190F081E02D43
S1131D300F2EF5E2EF2EF12CF02D8E010F5F1F4FC9
S1131D4019958111A5CD10929B2410929C2480E0BA
S1131D5090E002C08BE994E2CC5ADF4FCDBFDEBFE6
S1131D60DF91CF911F910F91FF90EF90DF90CF9073
S1131D70BF90AF909F908F907F906F905F904F90A7
S1131D803F902F900895009719F0FC011082118262
S1131D900895009781F06115710581F0FB0120A180
S1131DA024FD0FC020915C2430915D24232B61F02D
S1131DB080E090E0089580E090E0089580E090E075
S1131DC0089580E090E0089521E3FB01AEE5B4E2DC
S1131DD001900D922A95E1F780935C2490935D2401
S1131DE0AFE8B4E21C9211961C92119712961C92C1
S1131DF0129713961C92139714961C921497159687
S1131E001C92159716961C92169717961C92FB0116
S1131E1081A192A1A3A1B4A1809397249093982423
S1131E20A0939924B0939A248CE594E208950097A2
S1131E3019F0FC011082118208952F923F924F9263
S1131E405F926F927F928F929F92AF92BF92CF9246
S1131E50DF92EF92FF920F931F93CF93DF93CDB74F
S1131E60DEB76697CDBFDEBF8B8B9C8B69877A8785
S1131E70498B5A8B009709F48AC1672B09F48AC1EC
S1131E804115510509F489C1DC01D396BC91B9838C
S1131E90FC01F4A9FA83DC01D596BC91BB83FC0157
S1131EA0F6A9FC83DC01D796BC91BD83FC01F0AD9F
S1131EB0FE83DC01D996BC91BF83FC01F2ADF887A7
S1131EC0DC019796ED90FD900D911C919A97EB860D
S1131ED0FC860D871E874A01242F392D40E050E0EF
S1131EE060E070E080E090E0A980BA80CB80DC8084
S1131EF0ED80FE800F8118850E940921EB84FC840B
S1131F000D851E8517012801AE2CB32CC42CD52CAD
S1131F10E12CF12C00E010E00E94272161F058F040
S1131F200B851C8529813A81021B130B098B1A8BA3
S1131F30012B09F435C1AB89BC89ED91FC91119752
S1131F40E08CF18CEB86FC86DB964D905D906D9079
S1131F507C90DE97411451046104710409F053C06C
S1131F6093964D905D906D907C909697411451049A
S1131F7061047104A9F4E1E0F0E029813A814B8124
S1131F805C816D817E818F819885A0E00E943021E3
S1131F9011F4E0E0F0E0882799278E1B9F0B05C120
S1131FA029813A814B815C816D817E818F81988505
S1131FB0A0E00E94302139F189809A80AB80BC80F6
S1131FC00B851C856801E12CF12CB301A2010B895E
S1131FD01C8910C08C189D08AE08BF08D8018D91CB
S1131FE09C911BD9AB01BC014115510561057105DB
S1131FF009F4D9C08C149D04AE04BF0458F72A0117
S11320003B010B8B1C8B8B859C850197E981FA81A5
S1132010E823F923E983FA8329883A88EB88FC8842
S1132020ED8AFE8AAD89BE890D911C91B301A2018E
S1132030C801A6D9A22EB32EC42ED52EE62EF72E75
S11320408F87988B8B849C84E981FA818E1A9F0AEE
S11320502814390408F44101D8010D90BC91A02D35
S1132060AB8BBC8BE981FA81AF012E2F352F40E079
S113207050E060E070E080E090E00F8518890E94F5
S11320800921AB89BC89ED91FC91740109851A85FC
S11320901995811105C089899A898219930985C086
S11320A0E985FA85E80DF91DE987FA8728183908C2
S11320B0A401282D352F40E050E060E070E080E07E
S11320C090E0AD89BE89D396AC90D397D496BC905A
S11320D0D497D596CC90D597D696DC90D697D796AC
S11320E0EC90D797D896FC90D897D9960C91D9971D
S11320F0DA961C91DA970E940921D3962C93D397F0
S1132100D4963C93D497D5964C93D597D6965C9316
S1132110D697D7966C93D797D8967C93D897D99619
S11321208C93D997DA969C93DA97E981FA818E0E8B
S11321309F1EEB84FC848E149F04E0F0B301A20183
S11321408D919C916AD82B013C0161157105810523
S1132150910571F40D891E89D801DB961D921D929B
S11321601D921C92DE9789899A89821993091DC050
S113217019821A82ED89FE8943AE54AE65AE76AEFD
S11321802114310409F04ECF89899A890EC08FEF4A
S11321909FEF0BC08FEF9FEF08C08FEF9FEF05C03D
S11321A080E090E002C08FEF9FEF6696CDBFDEBF68
S11321B0DF91CF911F910F91FF90EF90DF90CF901F
S11321C0BF90AF909F908F907F906F905F904F9053
S11321D03F902F900895CF93DF930097B1F061154E
S11321E07105B1F0FB0120A124FF15C02091EA2361
S11321F03091EB23232B91F020912324309124243C
S1132200232B79F080E090E025C080E090E022C0AC
S113221080E090E01FC080E090E01CC0CAEED3E2F2
S113222002C0C3E2D4E2DE01129621E3FB01019075
S11322300D922A95E1F788839983FB0181A192A1EC
S1132240A3A1B4A18BAB9CABADABBEAB1FAA18AE24
S11322508C2F9D2FDF91CF910895009719F0FC01E9
S1132260108211820895FC01009761F043A154A1EA
S113227065A176A143AB54AB65AB76AB17AA10AEA0
S113228081E0089580E008952F923F924F925F92EB
S11322906F927F928F929F92AF92BF92CF92DF9272
S11322A0EF92FF920F931F93CF93DF93CDB7DEB7D7
S11322B0E897CDBFDEBF8DAB9EAB009709F4F9C0A4
S11322C06115710509F4F7C0DC010D90BC91A02DD6
S11322D0AFABB8AF5896ED91FC915997EFA7F8AB17
S11322E0DC01D3964D905D906D907C90D697D796F7
S11322F02D903C90D8972E163F0618F0B4DF80E05E
S1132300DDC0FE01319686E0DF011D928A95E9F772
S113231081E3FB0111928A95E9F769837A83411479
S113232051046104710409F0A8C0AFA9B8ADED91DE
S1132330FC91119780858B3039F49A964D905D907D
S11323406D907C909D9799C0EFA9F8AD228D338D47
S113235082A193A1A901481B590B4FA758AB8DC06B
S11323606FA478A862187308910140E050E060E01F
S113237070E0CB012FA238A749A75AA76BA77CA767
S11323808DA79EA749A95AA96BA97CA9452B462BC1
S1132390472B09F540E050E060E070E080E090E019
S11323A0D2019296AC9092979396BC909397949600
S11323B0CC9094979596DC9095979696EC909697FA
S11323C09796FC90979798960C91989799961C914C
S11323D00E94092111C049A95AA96BA97CA9C2016B
S11323E00E94C009AFA0B8A4C12CD12CE12CF12CBF
S11323F000E010E00E9409211B821C82D201ED91B1
S1132400FC910280F381E02DDE0111964D010F2E27
S1132410FFE5AF2EFAE0BF2EF02D63016894EE24A1
S1132420E5F8F12C8E01095F1F4F1995882309F4F3
S113243044C08B819C81280E391EEFA5F8A92E1665
S11324403F0608F149A85AA86BA87CA8B301A201C9
S11324508FA998AD0E940D092B013C0161157105EE
S11324608105910541F48E81811115C08DA99EA924
S1132470FADE80E023C0212C312C49AA5AAA6BAA87
S11324807CAA4FA858AC8E81882309F469CF49A847
S11324905AA86BA87CA8ADA9BEA9D3964D925D920B
S11324A06D927C92D697D7962D923C92D8978E8136
S11324B005C080E003C080E001C080E0E896CDBFA5
S11324C0DEBFDF91CF911F910F91FF90EF90DF90CE
S11324D0CF90BF90AF909F908F907F906F905F90C0
S11324E04F903F902F9008956F927F928F929F927A
S11324F0AF92BF92CF92DF92EF92FF920F931F930E
S1132500CF93DF935C016B01EA01009709F46EC07D
S11325106115710509F46CC0FB018081882309F4FD
S113252069C0209709F468C08F3219F4FFEFCF1AFD
S1132530DF0A81E3FE0111928A95E9F780E188A31D
S1132540F6018081882309F459C0BE01C50143DE28
S11325508C01009709F454C06FE270E0C6010E9438
S11325606221009741F0E82EEC184C01FFEF8F1A1E
S11325709F0AF12C2BC0F60101900020E9F7319756
S1132580EC19FD09EE2E46018E0E911CF2CFFE01D0
S113259001900020E9F731973F016C1A7D0A6E140F
S11325A07F04A1F4A301BE01C6010E947621892BF8
S11325B069F4C80152DEF601E60DF71D8081882317
S11325C009F188A184FD08C080E01FC0BE01C801D4
S11325D05BDE8111DCCF03C0640100E010E0C801C0
S11325E03CDEF60180818111B0CF0EC080E00DC0C9
S11325F080E00BC080E009C080E007C081E005C036
S113260080E003C081E001C081E0DF91CF911F91A0
S11326100F91FF90EF90DF90CF90BF90AF909F907D
S11326208F907F906F900895AF92BF92CF92DF9278
S1132630EF92FF920F931F93CF93DF93FC010097C8
S113264009F44EC0A081B18118968C918B3031F57C
S113265082899389A489B589B695A7959795879515
S1132660B695A795979587950297A109B109BC01DD
S1132670CD01E08CF18CAE2CBF2CC12CD12CE12CE3
S1132680F12C00E010E0262F372F482F592F60E05F
S113269070E080E090E00E9481202AC082899389C2
S11326A0A489B589B695A795979587950297A109A9
S11326B0B109BC01CD01E08CF18CAE2CBF2CC12C36
S11326C0D12CE12CF12C00E010E0262F372F482FDD
S11326D0592F60E070E080E090E00E94812008C003
S11326E020E030E040E050E060E070E080E090E026
S11326F0DF91CF911F910F91FF90EF90DF90CF90DA
S1132700BF90AF9008952F923F924F925F926F9235
S11327107F928F929F92AF92BF92CF92DF92EF926D
S1132720FF920F931F93CF93DF93CDB7DEB7E0975C
S1132730CDBFDEBF8FA798AB892B09F4B5C019A212
S11327401AA21BA21CA280E290E08DA39EA3AFA5B7
S1132750B8A91A96BC91BFA3EFA5F8A9F385F8A769
S1132760AFA5B8A91C96BC91B9A7EFA5F8A9F585A2
S1132770FAA7AFA5B8A91E96BC91BBA7EFA5F8A967
S1132780F785FCA7AFA5B8A95096BC91BDA7EFA546
S1132790F8A9F189FEA7AFA5B8A952964D905D900E
S11327A06D907C905597411451046104710409F4AF
S11327B05EC0BEEF4B16BFEF5B066104710410F4FC
S11327C0120106C00F2EFEEF2F2EF02D33243A9463
S11327D0EFA5F8A9A081B1811296ED91FC91139710
S11327E018968C91863031F48EE29AE0A82EDC01A2
S11327F0BB2E05C080EE9BE0A82EDC01BB2ECE01D3
S113280081964C0161016894EE24E5F8F12C8E0167
S11328100F5F1F4F2FA138A549A55AA56BA57CA50D
S11328208DA59EA51995882309F447C04101222D41
S1132830392D40E050E060E070E080E090E0AFA02F
S1132840B8A4C9A4DAA4EBA4FCA40DA51EA50E94F7
S113285009212FA338A749A75AA76BA77CA78DA73F
S11328609EA7421853086108710809F0A2CFAFA5CA
S1132870B8A958962D903C90599709A11AA12BA15B
S11328803CA1A02EB12EC22ED32EE12CF12C00E0BF
S113289010E0222D332D40E050E060E070E080E055
S11328A090E00E94812011C020E030E040E050E040
S11328B060E070E080E090E008C020E030E040E0BC
S11328C050E060E070E080E090E0E096CDBFDEBFD5
S11328D0DF91CF911F910F91FF90EF90DF90CF90F8
S11328E0BF90AF909F908F907F906F905F904F902C
S11328F03F902F9008955F926F927F928F929F9254
S1132900AF92BF92CF92DF92EF92FF920F931F93F9
S1132910CF93DF93CDB7DEB76097CDBFDEBF6C0139
S11329205B013A014901502E009709F453C0611527
S1132930710509F452C083E080170CF451C00023E0
S1132940F4F090E10902F0011124E254FE4F9F2FAC
S1132950990F990B6894EE24E4F8F12C8E010F5F23
S11329601F4F2E2F3F2F492F592F692F792F892F32
S1132970F60119958823B9F18D818823B9F18091E5
S1132980D5248823B1F180E090E04CC08D81809300
S1132990D524CE0109960E94FB086093D624709337
S11329A0D7248093D8249093D924CE010D960E94E5
S11329B0FB086093DA247093DB248093DC249093E7
S11329C0DD248DEC94E22EC08FEF8093D5248DEC22
S11329D094E228C080E090E025C080E090E022C02E
S11329E080E090E01FC080E090E01CC080E090E0B8
S11329F019C0EDECF4E281E1DF011D928A95E9F75B
S1132A00C082D182A092CF24B092D0246092D124EB
S1132A107092D2248092D3249092D42455200CF026
S1132A20B5CFD2CF6096CDBFDEBFDF91CF911F91DE
S1132A300F91FF90EF90DF90CF90BF90AF909F9059
S1132A408F907F906F905F900895009721F0FC0124
S1132A50108681E0089580E00895E0ECF9E0838336
S1132A6082818823ECF708958FEFE0ECF9E083830B
S1132A7082818823ECF7E0ECF9E083810895FF92EA
S1132A800F931F93CF93DF93C82FD42F152F062FA7
S1132A90F72EEADF8C2F8064E0DF8F2DDEDF802FBE
S1132AA0DCDF812FDADF8D2FD8DFCC2319F0C8309B
S1132AB021F006C085E9D1DF0CC087E8CEDF09C06C
S1132AC08FEFCBDF06C0D0DF8F3F29F4C150D9F799
S1132AD002C0CAE0F8CFDF91CF911F910F91FF9010
S1132AE00895EF92FF920F931F938091DF24811139
S1132AF01DC02091E0243091E1244091E2245091C2
S1132B00E3246091E4247091E524E12C6894FF248B
S1132B10F1F808EE14E28091E6249091E724DED2E5
S1132B20882331F081E08093DF2403C081E001C079
S1132B3080E01F910F91FF90EF9008952F923F92A4
S1132B404F925F926F927F928F929F92AF92BF92B9
S1132B50CF92DF92EF92FF920F931F93CF93DF9365
S1132B60CDB7DEB76897CDBFDEBF29833A834B83E9
S1132B705C836D837E838F8398871701E114F1044E
S1132B8009F4F3C00F2EF8EE8F2EF6E29F2EF02DEF
S1132B900F8B188F69807A8021E07222930140E0C4
S1132BA050E060E070E0CB0169863A874B875C8730
S1132BB06D877E878F87988B29813A814B815C81D1
S1132BC06D817E818F819885A984BA84C12CD12C92
S1132BD0E12CF12C00E010E00E941E21522E432E25
S1132BE0498B5A8B6B8B7C8B8D8B9E8B40E052E098
S1132BF04619570949875A872416350610F4298639
S1132C003A86A090E024B090E124C090E224D090D1
S1132C10E324E090E424F090E5240091E62410916C
S1132C20E724252D342D49895A896B897C898D891E
S1132C309E890E94272109F463C053DF882309F485
S1132C4096C050E1509366068091DE2482FF10C046
S1132C50252D342D49895A896B897C898D899E89D2
S1132C6009E00E94ED20642F752F422F532F04C0DA
S1132C70452D542D69897A8981E101DF882331F05A
S1132C8080E1E0E6F6E0858380E074C0EDDE8E3F0F
S1132C90E9F708EE14E2E8DEF80181938F01E81504
S1132CA0F905C9F75092E0244092E124F989F093A0
S1132CB0E2242A892093E3243B893093E4244C8939
S1132CC04093E5245D895093E6246E896093E7245C
S1132CD0B30168517B4D49855A858F89988D0E942F
S1132CE059218F89988DE985FA858E0F9F1F8F8BC7
S1132CF0988FBADEB9DEF0E1F0936506B5DE11C057
S1132D00B30168517B4D49855A858F89988D0E94FE
S1132D1059212F89388D49855A85240F351F2F8BCA
S1132D20388F69857A85261A370A5B01262F3B2D51
S1132D3040E050E060E070E080E090E0A980BA807C
S1132D40CB80DC80ED80FE800F8118850E940921F4
S1132D5029833A834B835C836D837E838F83988737
S1132D602114310409F016CF04C081E003C080E0CF
S1132D7001C081E06896CDBFDEBFDF91CF911F9186
S1132D800F91FF90EF90DF90CF90BF90AF909F9006
S1132D908F907F906F905F904F903F902F90089509
S1132DA09F92AF92BF92CF92DF92EF92FF920F93D6
S1132DB01F93CF93DF93E0E6F6E080E2818380E81F
S1132DC0818380E1818390E49283858383E580938A
S1132DD0C0091AE049DE1150E9F780E1E0E6F6E0C7
S1132DE08683C0E0D2E040E050E0BA0180E047DEF4
S1132DF0813049F021972097B1F780E1E0E6F6E0D1
S1132E008583012FB5C04AEA51E060E070E088E0B4
S1132E1036DE082F047082FD17C026DE25DE24DE90
S1132E2080FFA6C021DE8A3A09F0A2C08091DE2488
S1132E3082608093DE24C0E0D0E8912CA12CB12CD8
S1132E406894CC24C6F812C040E050E0BA0187E38D
S1132E5016DE40E050E0BA0189E211DE82FDEBCFDC
S1132E608091DE2481608093DE24E5CF8091DE248E
S1132E70982F9370B9F081FD05C0D12CE12CF12C71
S1132E8000E004C0D92CEA2CFB2C0C2D40E050E0CF
S1132E90BA0187E3F4DD4D2D5E2D6F2D702F89E28D
S1132EA0EEDD05C040E050E0BA0181E0E8DD082F26
S1132EB0017080FF09C021972097C1F680E1E0E608
S1132EC0F6E08583012F54C0C091DE24C1FF15C0F4
S1132ED040E050E0BA018AE3D2DD882329F080E1A2
S1132EE0E0E6F6E0858344C0BFDD86FF03C0C4602E
S1132EF0C093DE24B9DDB8DDB7DD40E052E060E028
S1132F0070E080E1BCDD882329F080E1E0E6F6E0B2
S1132F1085832EC080E1E0E6F6E0858380ED809332
S1132F20C0098FEF8093E0248093E1248093E2240E
S1132F308093E3248093E4248093E5248093E6241F
S1132F408093E72481E08093DF24E12C6894FF24BC
S1132F50F1F808EE14E220E030E040E050E060E0F8
S1132F6070E080E090E0EADD01E0811101C000E062
S1132F70802FDF91CF911F910F91FF90EF90DF9001
S1132F80CF90BF90AF909F9008952F923F924F9211
S1132F905F926F927F928F929F92AF92BF92CF92E5
S1132FA0DF92EF92FF920F931F93CF93DF93CDB7EE
S1132FB0DEB76297CDBFDEBF2F87388B498B5A8B24
S1132FC0562E472E382E292E09831A833601AB86B6
S1132FD0BC86012B09F45FC0E114F10409F45DC05F
S1132FE0CE14DF0408F45BC0AB2809F45AC097017F
S1132FF040E050E060E070E0CB01EB823C834D8325
S11330005E836F83788789879A878D869E8647013A
S1133010DF84C888B988AA88740109811A812D2D92
S11330203C2D4B2D5A2D652D742D832D922D86DD2F
S11330308823C9F1ED84FE840D2D1C2D2B2D3A2DF2
S1133040452D542D632D722D89819A81EB85FC8544
S11330501995882351F12D2D3C2D4B2D5A2D652D7D
S1133060742D832D922DAB80BC80C12CD12CE12CEE
S1133070F12C00E010E00E940921D22EC32EB42EC0
S1133080A52E562E472E382E292E68187908681436
S1133090790410F60CC080E00BC080E009C080E029
S11330A007C080E005C080E003C081E001C081E08A
S11330B06296CDBFDEBFDF91CF911F910F91FF903C
S11330C0EF90DF90CF90BF90AF909F908F907F90C4
S11330D06F905F904F903F902F9008952F923F9262
S11330E04F925F926F927F928F929F92AF92BF9214
S11330F0CF92DF92EF92FF920F931F93CF93DF93C0
S1133100CDB7DEB76997CDBFDEBF29833A834B8342
S11331105C836D837E838F839887E114F10409F4C3
S113312004C10F2EF8EE8F2EF6E29F2EF02D17011C
S1133130280129813A813170288F398F40E050E08D
S113314060E070E0CB0129873A874B875C876D8705
S11331507E878F87988B29813A814B815C816D8131
S11331607E818F819885A984BA84C12CD12CE12CCD
S1133170F12C00E010E00E941E212987398B4A8B34
S11331805B8B6C8B7D8B8E8B9F8B612C68947724EF
S113319071F8688D798D661A770A2614370408F455
S11331A03101A090E024B090E124C090E224D090BA
S11331B0E324E090E424F090E5240091E6241091C7
S11331C0E724298539894A895B896C897D898E89B7
S11331D09F890E942721B1F184DC882309F4A7C0C8
S11331E0888D998D892B21F4611492E0790690F4ED
S11331F0E12C6894FF24F1F808EE14E2298539895A
S11332004A895B896C897D898E899F8997DC8823AB
S113321009F48FC0E985E093E024F989F093E1246F
S11332202A892093E2243B893093E3244C894093F8
S1133230E4245D895093E5246E896093E6247F89B4
S11332407093E72488EE481684E2580671F0A301CF
S1133250B201888D998D88519B4D0E9459211092FD
S1133260DF242614370409F466C090E190936606BF
S11332708091DE2482FF0FC0298539894A895B89C0
S11332806C897D898E899F8909E0A7D7642F752F62
S1133290422F532F04C0498559896A897B8988E163
S11332A0EEDB882331F080E1E0E6F6E0858380E020
S11332B045C08EEFD2DB08EE14E2F80181918F0154
S11332C0CCDB08151905C9F78FEFC7DB8FEFC5DB1A
S11332D0CBDB8F3FE9F7C8DBF0E1F0936506460CE2
S11332E0571C5301262D3B2D40E050E060E070E078
S11332F080E090E0A980BA80CB80DC80ED80FE8005
S11333000F81188586D729833A834B835C836D8329
S11333107E838F8398872618370821E02093DF2443
S11333202114310409F005CF08C081E007C080E012
S113333005C080E003C081E001C081E06996CDBF93
S1133340DEBFDF91CF911F910F91FF90EF90DF903F
S1133350CF90BF90AF909F908F907F906F905F9031
S11333604F903F902F9008952F923F924F925F92EB
S11333706F927F928F929F92AF92BF92CF92DF9281
S1133380EF92FF920F931F93CF93DF93CDB7DEB7E6
S11333902997CDBFDEBF28873D83562E472E09834C
S11333A01A83CB82DC82AE82BF82012B09F444C033
S11333B0CD2809F443C04701A22EB32EC42ED52E26
S11333C0782E692E170130C0288539858216930618
S11333D0B8F1E884F98409811A812A2D3B2D4C2DFA
S11333E05D2D652D742D872D962D78DE882351F162
S11333F0E884F984A7012E2D352F40E050E060E0E9
S113340070E080E090E0E52CF42C072D162D01D718
S1133410A22EB32EC42ED52E562E472E782E692ECC
S113342088859985881A990A2114310431F1811407
S1133430910471F481E036C080E034C080E032C091
S113344080E030C080E02EC081E02CC081E02AC042
S1133450EE80FF800A2D1B2D2C2D3D2D452D542D46
S1133460672D762D89819A81EB81FC811995888756
S11334709987892B09F0A8CFE7CFEE80FF800A2D2A
S11334801B2D2C2D3D2D452D542D672D762D8981F9
S11334909A81EB81FC81199588879987892B09F09A
S11334A098CFD4CF2996CDBFDEBFDF91CF911F91A6
S11334B00F91FF90EF90DF90CF90BF90AF909F90CF
S11334C08F907F906F905F904F903F902F900895D2
S11334D04F925F926F927F928F929F92AF92BF9220
S11334E0CF92DF92EF92FF920F931F93CF93DF93CC
S11334F0EC01009709F42BC18DE1FE0111928A952C
S1133500E9F780E1E0E6F6E0868340E050E0BA01C6
S11335108AE0B5DA882331F080E1E0E6F6E08583DD
S113352080E016C1A1DA8E3FE9F711E00F2EFCE02E
S1133530CF2ED12CF02D01C01F5FEE24EA94E10EB2
S113354093DA4E2D50E04F30510508F044C0FA0193
S1133550E650FF4FB7C58883EFCFFE01EE0DF11D96
S1133560808339C0FE01EE0DF11D818334C08A874A
S1133570E3CF482F50E060E070E0C6018E19910956
S1133580880F991F880F991F880F991F2A013B01E3
S113359004C0440C551C661C771C8A95D2F7D301D1
S11335A0C2014B855C856D857E85842B952BA62B6E
S11335B0B72B8B879C87AD87BE870DC08295807F94
S11335C08F87BACF982F92959F702F85922B9F87C4
S11335D08F70888BB1CF123108F4AECF40E050E049
S11335E0BA0189E04CDA882331F080E1E0E6F6E0C4
S11335F0858380E0ADC038DA8E3FE9F7DD24D394CB
S113360010E0C12CE12CF12CB12CA12C9924939421
S113361002C01F5FD39428DA111108C0C82EC694C3
S1133620C694C694C694C694C694F3CF1E3071F45F
S113363086FD998E85FD9A8E84FD9B8E8C7090E01C
S113364095958795959587958C8FE3CF55245394BD
S1133650C51024C0173021F038F01A3010F004C01F
S11336608F73FE2CEE24E82A193009F063C08FEF23
S1133670E81AF80AA7012E2D352F40E050E060E04B
S113368070E080E090E003E18DD5298B3A8B4B8B81
S11336905C8B6D8B7E8B8F8B988FBBCFC1104AC098
S11336A01730A9F028F4153049F0163051F042C013
S11336B01930E1F090F01A30E9F03CC08F70A82E78
S11336C0A8CF8370E82EF12CFE2CEE24A2CFE82A9A
S11336D0EE0CFF1CEE0CFF1C9CCF82958695869504
S11336E08370E82A9FEFE91AF90A93CF8370B82E02
S11336F0BB0C8FCF881F8827881FB82AA70160E0DA
S113370070E08A2D90E08B0D911D02962A013B01F9
S113371004C0440C551C661C771C8A95D2F7A3017F
S11337209201498A3A8B4B8B5C8B1D8A1E8A1F8AB5
S1133730188E6FCF0F2EF1E15F2EF02D5D1408F07F
S113374068CF80E1E0E6F6E0858381E001C080E0B7
S1133750DF91CF911F910F91FF90EF90DF90CF9069
S1133760BF90AF909F908F907F906F905F904F909D
S11337700895CF93DF931F92CDB7DEB78091372B97
S11337809091382B009769F041E050E0BE016F5FE3
S11337907F4F0E941D0F1816190634F4898190E09A
S11337A005C08FEF9FEF02C08FEF9FEF0F90DF9167
S11337B0CF910895EF92FF920F931F93CF93DF93CE
S11337C08B017A01E9010AC0B701CE0186D5892BA4
S11337D029F4C8010E94331181E006C0BE01C8016A
S11337E00E9444118111F0CFDF91CF911F910F916D
S11337F0FF90EF9008950F931F93CF93DF93CDB76E
S1133800DEB7E197CDBFDEBF8C019E012F5F3F4F36
S1133810D1DF882339F0BE016F5F7F4FC8010E945A
S1133820C90E02C080E090E0E196CDBFDEBFDF911B
S1133830CF911F910F910895EF92FF920F93CF9321
S1133840DF93CDB7DEB76D97CDBFDEBF7C010097A8
S113385009F4E0C0CE0101963BDE882309F4DCC004
S113386066EF71E28AEE96E2CAD261E072E28AEE13
S113387096E2C5D269818AEE96E2F5D26DE08AEECF
S113388096E294D26DE072E28AEE96E2B8D2BE017C
S11338906E5F7F4F8AEE96E2B2D26DE08AEE96E2D8
S11338A085D267E172E28AEE96E2A9D2BE016B5F2D
S11338B07F4F8AEE96E2A3D26DE08AEE96E276D24C
S11338C061E272E28AEE96E29AD26B858AEE96E221
S11338D0CAD26DE08AEE96E269D26BE272E28AEEB7
S11338E096E28DD24C855D856E857F858AEE96E263
S11338F0E8D26DE08AEE96E259D267E372E28AEE8C
S113390096E27DD2698970E08AEE96E2F1D26FE2A6
S11339108AEE96E24BD2688970E08AEE96E2E8D2AB
S11339206DE08AEE96E242D261E472E28AEE96E2B9
S113393066D22A893B894C895D896E897F89888D05
S1133940998D04E14AD4642F752F422F532F8AEEA8
S113395096E20FD36BE472E28AEE96E250D26FE401
S113396072E28AEE96E24BD26A8D70E08AEE96E2BB
S1133970BFD26DE08AEE96E219D269E572E28AEE70
S113398096E23DD26C8D70E08AEE96E2B1D26FE29F
S11339908AEE96E20BD26B8D70E08AEE96E2A8D2A4
S11339A06DE08AEE96E202D263E672E28AEE96E275
S11339B026D26D8D70E08AEE96E29AD26DE08AEEA0
S11339C096E2F4D16DE672E28AEE96E218D2C7016D
S11339D00E948313642F752F422F532F8AEE96E291
S11339E0C8D26FE28AEE96E2E1D1C7010E941413B5
S11339F0642F752F422F532F8AEE96E2BAD26DE0D0
S1133A008AEE96E2D3D166EF71E28AEE96E2F7D1BE
S1133A1081E003C080E001C080E06D96CDBFDEBFD1
S1133A20DF91CF910F91FF90EF900895FF920F9344
S1133A301F93CF93DF9367E772E28AEE96E2DFD1BA
S1133A400F2EF4E1FF2EF02DCAEFDAE22AC0E5EDE5
S1133A50FAE201900020E9F73197E55DFA420F2D73
S1133A600E1B6CE872E28AEE96E2C9D165ED7AE249
S1133A708AEE96E2C4D1002341F010E060E28AEEBF
S1133A8096E294D11F5F1013F9CF488159816A815E
S1133A907B818AEE96E26DD269EB71E28AEE96E260
S1133AA0AED165ED7AE280913B2B90913C2B0E9444
S1133AB044118111CCCFDF91CF911F910F91FF90D1
S1133AC008950F938091E826813009F46CC068D979
S1133AD0811106C06EE872E28AEE96E290D163C06C
S1133AE081E08093E82600E024EB39E14EE658E1DA
S1133AF065EC77E18EE995E10E947B148093392B84
S1133B0090933A2B892BB1F40FEF24EB39E14EE675
S1133B1058E165EC77E18EE995E10E947B1480938E
S1133B20392B90933A2B892B29F46DEA72E28AEEB1
S1133B3096E265D18091392B90913A2B0E94130C17
S1133B408093D32A9093D42A892B29F468EC72E2C7
S1133B508AEE96E254D146E05BE264EE72E2809132
S1133B60D32A9091D42A0E94741266E07BE2809159
S1133B70D32A9091D42A0E94EB1080933B2B9093EC
S1133B803C2B892B29F466EE72E28AEE96E237D159
S1133B908091D32A9091D42A4FDE48DF66E073E205
S1133BA08AEE96E22CD10F9108958091E826813017
S1133BB019F580913B2B90913C2B0E942D1162E1D1
S1133BC073E28AEE96E21BD18091D32A9091D42A93
S1133BD00E94C30E65E273E28AEE96E210D18091F0
S1133BE0392B90913A2B0E9425156BE373E28AEEF0
S1133BF096E205D11092E8260895CF93DF93EC0165
S1133C008091E926813031F46EE473E28AEE96E223
S1133C10F6D032C060913B2B70913C2BAE01809169
S1133C20D32A9091D42AE7DD8093372B9093382BB5
S1133C30892B89F461E673E28AEE96E2E0D0BE0154
S1133C408AEE96E2DCD069EB71E28AEE96E2D7D096
S1133C500E948D0311C081E08093E9266BE773E233
S1133C608AEE96E2CCD0BE018AEE96E2C8D063E832
S1133C7073E28AEE96E2C3D0DF91CF9108958091EA
S1133C80E926813079F40E9471158091372B909147
S1133C90382B0E94170F61EC73E28AEE96E2AFD0E4
S1133CA01092E9260895FC012081207F622B608315
S1133CB00895FC0126812C7F622B66830895FC0104
S1133CC0608371834283EC5FFD4F108231971082D1
S1133CD033961082319710820895CF93DF93FC01BD
S1133CE0DC01AB5FBD4F2C9111969C912F5F81E05D
S1133CF0291301C080E08823B1F0DF01AB5FBD4F21
S1133D009C91EF01C90FD11DCD5FDE4F68839F5F8A
S1133D109C93A081B18113969C9113979C7F2281DF
S1133D20922B13969C93DF91CF910895FC01ED5F44
S1133D30FD4F20812F5F31963081DC01ED91FC91A4
S1133D4011974081231759F0FC01ED5FFD4F30813D
S1133D50A30FB11D13964C93208381E0089580E056
S1133D600895CF93DF93FC01EA5FFD4F20813197E3
S1133D703081321307C0DC01ED91FC9183818C7F8B
S1133D80838311C0FC01EA5FFD4F2081DC01A20F97
S1133D90B11DAD5FBE4F2C91EC01A881B9812C936C
S1133DA080818F5F8083DF91CF910895CF93DF93DC
S1133DB0FC01DC01AB5FBD4F2C9111969C912F5FF0
S1133DC081E0291301C080E08823B1F0DF01AB5FFB
S1133DD0BD4F9C91EF01C90FD11DCD5FDE4F6883AC
S1133DE09F5F9C93A081B18113969C9113979C7FB4
S1133DF02281922B13969C93DF91CF910895CF93B8
S1133E00DF93FC01DC01AB5FBD4F2C9111969C91BB
S1133E102F5F81E0291301C080E0882309F1DB01D1
S1133E209C919923E9F06F5F7F4FEF01CB5FDD4FEA
S1133E302881DF01A20FB11DAD5FBE4F9C932F5FA0
S1133E402883A081B18113969C9113979C7F228132
S1133E50922B13969C93DB019D91BD019111E8CFA8
S1133E60DF91CF9108951F93CF93DF93EC01162F29
S1133E7062956F706A3018F4605D98DF02C0695A09
S1133E8095DF1F70812F90E00A972CF460E3610F97
S1133E90CE018CDF04C067E5610FCE0187DFDF91BF
S1133EA0CF911F9108951F93CF93DF93EC01162FA9
S1133EB0672FD9DF612FCE01D6DFDF91CF911F911C
S1133EC00895CF92DF92EF92FF92CF93DF93EC01AC
S1133ED06A017B0188279927CE01E5DFB601CE016F
S1133EE0E2DFDF91CF91FF90EF90DF90CF900895C4
S1133EF0BF92CF92DF92EF92FF920F931F93CF93D3
S1133F00DF936C017B0105E010E040E0C0E1D7E203
S1133F10C701BE01A1D0B62E611105C0411103C075
S1133F20C130D10529F460E36B0DC6013FDF41E0E8
S1133F30BC9E9001BD9E300D1124E21AF30A9E012D
S1133F40ADECBCECC5D0EC01D695C795D695C7951C
S1133F50D695C7950150110901151105C9F6DF91D0
S1133F60CF911F910F91FF90EF90DF90CF90BF9072
S1133F7008952F923F924F925F926F927F928F9209
S1133F809F92AF92BF92CF92DF92EF92FF920F93E4
S1133F901F93CF93DF938C014A015B01CAE0D0E009
S1133FA0312C0F2EC12CFAECDF2EFAE9EF2EFBE3B5
S1133FB0FF2EF02D0F2EFAE04F2E512C612C712C78
S1133FC0F02DC501B401A70196015AD0222E21116A
S1133FD008C0311006C081E0C816D104E104F10420
S1133FE031F460E3620DC801E1DE33243394A22D81
S1133FF0B0E0A70196017BD0861A970AA80AB90AED
S1134000C701B601A30192013BD069017A0121974E
S11340102097B9F6DF91CF911F910F91FF90EF9008
S1134020DF90CF90BF90AF909F908F907F906F90D4
S11340305F904F903F902F900895DB018F939F9353
S113404056D0BF91AF91A29F800D911DA39F900D5B
S1134050B29F900D11240895AA1BBB1B51E107C008
S1134060AA1FBB1FA617B70710F0A61BB70B881F04
S1134070991F5A95A9F780959095BC01CD01089593
S1134080A1E21A2EAA1BBB1BFD010DC0AA1FBB1F58
S1134090EE1FFF1FA217B307E407F50720F0A21BCA
S11340A0B30BE40BF50B661F771F881F991F1A9437
S11340B069F760957095809590959B01AC01BD0161
S11340C0CF010895EE0FFF1F0590F491E02D199490
S11340D0A29FB001B39FC001A39F700D811D112445
S11340E0911DB29F700D811D1124911D0895F0DF63
S11340F0A59F900DB49F900DA49F800D911D112438
S11341000895DF93CF931F930F939A9DF02D219FD2
S1134110F00D8B9DF00D8A9DE02DF10D039FF00DA8
S1134120029FE00DF11D4E9DE00DF11D5E9DF00D11
S11341304F9DF00D7F936F93BF92AF925F934F9318
S1134140D501C6DF8B01AC01D701C2DFEB01E80F5B
S1134150F91FD6011FD02F913F91D601B9DFC60FA9
S1134160D71FE81FF91FAF91BF9114D02F913F9132
S1134170AFDFC60FD71FE81FF91FD601A9DFE60F6F
S1134180F71F9801BE01CF0111240F911F91CF9108
S1134190DF9108959DDF460F571FC81FD91F08F4EC
S11341A0319608950F93083090F0982F872F762F2B
S11341B0652F542F432F322F22270850F4CF220F7C
S11341C0331F441F551F661F771F881F991F0A95A9
S11341D0B2F70F91089597FB10F8169400080F9307
S11341E0083098F00850232F342F452F562F672F6F
S11341F0782F892F902DF4CF0594979587957795EF
S1134200679557954795379527950A95AAF70F917E
S113421008952A0D3B1D4C1D5D1D6E1D7F1D801FC5
S1134220911F08950024A7FD00942A0F301D401DFE
S1134230501D601D701D801D901D08952A193B0995
S11342404C095D096E097F09800B910B08952A15AD
S11342503B054C055D056E057F05800791070895B4
S11342600024A7FD00942A17300540055005600579
S11342707005800590050895FC0188279927E89426
S113428021912032E9F3293010F02E30C8F32B327B
S113429039F02D3231F4689403C036D0820F911D69
S11342A0219120532A30C8F31EF4909581959F4F95
S11342B00895FB01DC0102C001900D924150504071
S11342C0D8F70895FC018191861721F08823D9F746
S11342D0992708953197CF010895FB01DC018D9151
S11342E0019080190110D9F3990B0895FB01DC01A9
S11342F04150504030F08D910190801919F4002004
S1134300B9F7881B990B08957AE0979F902D879FA2
S10F4310802D910D11240895F894FFCF26
S113431C01030507090E10121416181C1E70656E85
S113432C64756C756D5F315F696E69742E74787425
S113433C000D62722E7265646F76613A20000D2353
S113434C232323232323232323232070656E6475C3
S113435C6C756D5F315F696E69742E74787420238B
S113436C2323232323232323230D000D232323235C
S113437C23232323232323232323232323232323FD
S113438C23232323232323232323232323232323ED
S113439C0D0070656E64756C756D5F325F696E6966
S11343AC742E747874000D232323232323232323B3
S11343BC23232070656E64756C756D5F325F696E56
S11343CC69742E7478742023232323232323232317
S11343DC230D000D232323232323232323232323EC
S11343EC232323232323232323232323232323238D
S11343FC2323232323232323230D0070656E647549
S113440C6C756D5F315F63686F72656F6772617035
S113441C68792E747874000D2323232323232323F8
S113442C2323232070656E64756C756D5F315F6337
S113443C686F72656F6772617068792E7478742016
S113444C232323232323232323230D0070656E644A
S113445C756C756D5F325F63686F72656F677261DF
S113446C7068792E747874000D232323232323235B
S113447C232323232070656E64756C756D5F325F26
S113448C63686F72656F6772617068792E74787483
S113449C20232323232323232323230D0048656C68
S11344AC6C6F2070656E64756C756D73210D000DE9
S11344BC232323656E64206F662063686F72656FB7
S11344CC67726170687923230D0D007265737461D2
S11344DC72742066697273742070686173653A2013
S11344EC006C6F6B6573737572757365673A200036
S11344FC0D6A756D7020746F206E65787420706809
S113450C6173653A2000232E2E2E2E2E2E2E2E0D68
S113451C00236D616E7566203A20307800236F6538
S113452C6D2020203A20002370726F6420203A20E2
S113453C00237265762020203A200023736572696B
S113454C616C3A20307800236461746520203A2031
S113455C002373697A6520203A20004D420D002314
S113456C636F707920203A20002377722E70722E9C
S113457C3A200023666F726D61743A2000236672D0
S113458C656520203A2000232E2E2E2E2E2E2E2E24
S113459C4469726563746F72793A0D002300234D7C
S11345AC4D432F534420696E697469616C697A6157
S11345BC74696F6E206661696C65640D00236F709D
S11345CC656E696E6720706172746974696F6E20B0
S11345DC6661696C65640D00236F70656E696E6746
S11345EC2066696C6573797374656D206661696C9A
S11345FC65640D002F00236F70656E696E67207201
S113460C6F6F74206469726563746F72792066616C
S113461C696C65640D002343617264206F70656E70
S113462C0D0023636C6F73653A206469726563745F
S113463C6F72790D0023636C6F73653A2066696C35
S113464C652073797374656D200D0023636C6F732F
S113465C653A20706172746974696F6E0D0023463B
S113466C696C65207363686F6E206F6666656E0D8A
S113467C00234665686C6572206265696D206F6500
S113468C6666656E20766F6E3A20002346696C650B
S113469C3A20002067656F6566666E65740D0023AD
S11346AC4665686C6572206265696D20616E6C6527
S11346BC67656E20766F6E3A2000206572666F6CAB
S11346CC67726569636820616E67656C6567740DF4
S11346DC0023636C6F73653A2066696C650D002367
S11346EC6572726F722077726974696E6720746F69
S10B46FC2066696C650D0000E5
S9030000FC
